{
  "_format": "hh-sol-artifact-1",
  "contractName": "strategyNFT",
  "sourceName": "contracts/strategyNFT.sol",
  "abi": [
    {
      "inputs": [],
      "stateMutability": "nonpayable",
      "type": "constructor"
    },
    {
      "anonymous": false,
      "inputs": [
        {
          "indexed": true,
          "internalType": "address",
          "name": "owner",
          "type": "address"
        },
        {
          "indexed": true,
          "internalType": "address",
          "name": "approved",
          "type": "address"
        },
        {
          "indexed": true,
          "internalType": "uint256",
          "name": "tokenId",
          "type": "uint256"
        }
      ],
      "name": "Approval",
      "type": "event"
    },
    {
      "anonymous": false,
      "inputs": [
        {
          "indexed": true,
          "internalType": "address",
          "name": "owner",
          "type": "address"
        },
        {
          "indexed": true,
          "internalType": "address",
          "name": "operator",
          "type": "address"
        },
        {
          "indexed": false,
          "internalType": "bool",
          "name": "approved",
          "type": "bool"
        }
      ],
      "name": "ApprovalForAll",
      "type": "event"
    },
    {
      "anonymous": false,
      "inputs": [
        {
          "indexed": false,
          "internalType": "uint256",
          "name": "_fromTokenId",
          "type": "uint256"
        },
        {
          "indexed": false,
          "internalType": "uint256",
          "name": "_toTokenId",
          "type": "uint256"
        }
      ],
      "name": "BatchMetadataUpdate",
      "type": "event"
    },
    {
      "anonymous": false,
      "inputs": [
        {
          "indexed": false,
          "internalType": "uint256",
          "name": "_tokenId",
          "type": "uint256"
        }
      ],
      "name": "MetadataUpdate",
      "type": "event"
    },
    {
      "anonymous": false,
      "inputs": [
        {
          "indexed": true,
          "internalType": "address",
          "name": "previousOwner",
          "type": "address"
        },
        {
          "indexed": true,
          "internalType": "address",
          "name": "newOwner",
          "type": "address"
        }
      ],
      "name": "OwnershipTransferred",
      "type": "event"
    },
    {
      "anonymous": false,
      "inputs": [
        {
          "indexed": true,
          "internalType": "address",
          "name": "from",
          "type": "address"
        },
        {
          "indexed": true,
          "internalType": "address",
          "name": "to",
          "type": "address"
        },
        {
          "indexed": true,
          "internalType": "uint256",
          "name": "tokenId",
          "type": "uint256"
        }
      ],
      "name": "Transfer",
      "type": "event"
    },
    {
      "inputs": [
        {
          "internalType": "address",
          "name": "to",
          "type": "address"
        },
        {
          "internalType": "uint256",
          "name": "tokenId",
          "type": "uint256"
        }
      ],
      "name": "approve",
      "outputs": [],
      "stateMutability": "nonpayable",
      "type": "function"
    },
    {
      "inputs": [
        {
          "internalType": "address",
          "name": "owner",
          "type": "address"
        }
      ],
      "name": "balanceOf",
      "outputs": [
        {
          "internalType": "uint256",
          "name": "",
          "type": "uint256"
        }
      ],
      "stateMutability": "view",
      "type": "function"
    },
    {
      "inputs": [
        {
          "internalType": "uint256",
          "name": "tokenId",
          "type": "uint256"
        }
      ],
      "name": "getApproved",
      "outputs": [
        {
          "internalType": "address",
          "name": "",
          "type": "address"
        }
      ],
      "stateMutability": "view",
      "type": "function"
    },
    {
      "inputs": [
        {
          "internalType": "uint256",
          "name": "tokenId",
          "type": "uint256"
        }
      ],
      "name": "getNFTMetadata",
      "outputs": [
        {
          "internalType": "string",
          "name": "",
          "type": "string"
        }
      ],
      "stateMutability": "view",
      "type": "function"
    },
    {
      "inputs": [
        {
          "internalType": "address",
          "name": "owner",
          "type": "address"
        },
        {
          "internalType": "address",
          "name": "operator",
          "type": "address"
        }
      ],
      "name": "isApprovedForAll",
      "outputs": [
        {
          "internalType": "bool",
          "name": "",
          "type": "bool"
        }
      ],
      "stateMutability": "view",
      "type": "function"
    },
    {
      "inputs": [
        {
          "internalType": "address",
          "name": "recipient",
          "type": "address"
        },
        {
          "internalType": "string",
          "name": "tokenURI",
          "type": "string"
        }
      ],
      "name": "mintNFT",
      "outputs": [
        {
          "internalType": "uint256",
          "name": "",
          "type": "uint256"
        }
      ],
      "stateMutability": "nonpayable",
      "type": "function"
    },
    {
      "inputs": [],
      "name": "name",
      "outputs": [
        {
          "internalType": "string",
          "name": "",
          "type": "string"
        }
      ],
      "stateMutability": "view",
      "type": "function"
    },
    {
      "inputs": [],
      "name": "owner",
      "outputs": [
        {
          "internalType": "address",
          "name": "",
          "type": "address"
        }
      ],
      "stateMutability": "view",
      "type": "function"
    },
    {
      "inputs": [
        {
          "internalType": "uint256",
          "name": "tokenId",
          "type": "uint256"
        }
      ],
      "name": "ownerOf",
      "outputs": [
        {
          "internalType": "address",
          "name": "",
          "type": "address"
        }
      ],
      "stateMutability": "view",
      "type": "function"
    },
    {
      "inputs": [],
      "name": "renounceOwnership",
      "outputs": [],
      "stateMutability": "nonpayable",
      "type": "function"
    },
    {
      "inputs": [
        {
          "internalType": "address",
          "name": "from",
          "type": "address"
        },
        {
          "internalType": "address",
          "name": "to",
          "type": "address"
        },
        {
          "internalType": "uint256",
          "name": "tokenId",
          "type": "uint256"
        }
      ],
      "name": "safeTransferFrom",
      "outputs": [],
      "stateMutability": "nonpayable",
      "type": "function"
    },
    {
      "inputs": [
        {
          "internalType": "address",
          "name": "from",
          "type": "address"
        },
        {
          "internalType": "address",
          "name": "to",
          "type": "address"
        },
        {
          "internalType": "uint256",
          "name": "tokenId",
          "type": "uint256"
        },
        {
          "internalType": "bytes",
          "name": "data",
          "type": "bytes"
        }
      ],
      "name": "safeTransferFrom",
      "outputs": [],
      "stateMutability": "nonpayable",
      "type": "function"
    },
    {
      "inputs": [
        {
          "internalType": "address",
          "name": "operator",
          "type": "address"
        },
        {
          "internalType": "bool",
          "name": "approved",
          "type": "bool"
        }
      ],
      "name": "setApprovalForAll",
      "outputs": [],
      "stateMutability": "nonpayable",
      "type": "function"
    },
    {
      "inputs": [
        {
          "internalType": "bytes4",
          "name": "interfaceId",
          "type": "bytes4"
        }
      ],
      "name": "supportsInterface",
      "outputs": [
        {
          "internalType": "bool",
          "name": "",
          "type": "bool"
        }
      ],
      "stateMutability": "view",
      "type": "function"
    },
    {
      "inputs": [],
      "name": "symbol",
      "outputs": [
        {
          "internalType": "string",
          "name": "",
          "type": "string"
        }
      ],
      "stateMutability": "view",
      "type": "function"
    },
    {
      "inputs": [
        {
          "internalType": "uint256",
          "name": "tokenId",
          "type": "uint256"
        }
      ],
      "name": "tokenURI",
      "outputs": [
        {
          "internalType": "string",
          "name": "",
          "type": "string"
        }
      ],
      "stateMutability": "view",
      "type": "function"
    },
    {
      "inputs": [
        {
          "internalType": "address",
          "name": "from",
          "type": "address"
        },
        {
          "internalType": "address",
          "name": "to",
          "type": "address"
        },
        {
          "internalType": "uint256",
          "name": "tokenId",
          "type": "uint256"
        }
      ],
      "name": "transferFrom",
      "outputs": [],
      "stateMutability": "nonpayable",
      "type": "function"
    },
    {
      "inputs": [
        {
          "internalType": "address",
          "name": "newOwner",
          "type": "address"
        }
      ],
      "name": "transferOwnership",
      "outputs": [],
      "stateMutability": "nonpayable",
      "type": "function"
    }
  ],
  "bytecode": "0x60806040523480156200001157600080fd5b506040518060400160405280600d81526020017f466f6c6c6f775468654c656164000000000000000000000000000000000000008152506040518060400160405280600381526020017f46544c000000000000000000000000000000000000000000000000000000000081525081600090816200008f919062000412565b508060019081620000a1919062000412565b505050620000c4620000b8620000ca60201b60201c565b620000d260201b60201c565b620004f9565b600033905090565b6000600760009054906101000a900473ffffffffffffffffffffffffffffffffffffffff16905081600760006101000a81548173ffffffffffffffffffffffffffffffffffffffff021916908373ffffffffffffffffffffffffffffffffffffffff1602179055508173ffffffffffffffffffffffffffffffffffffffff168173ffffffffffffffffffffffffffffffffffffffff167f8be0079c531659141344cd1fd0a4f28419497f9722a3daafe3b4186f6b6457e060405160405180910390a35050565b600081519050919050565b7f4e487b7100000000000000000000000000000000000000000000000000000000600052604160045260246000fd5b7f4e487b7100000000000000000000000000000000000000000000000000000000600052602260045260246000fd5b600060028204905060018216806200021a57607f821691505b60208210810362000230576200022f620001d2565b5b50919050565b60008190508160005260206000209050919050565b60006020601f8301049050919050565b600082821b905092915050565b6000600883026200029a7fffffffffffffffffffffffffffffffffffffffffffffffffffffffffffffffff826200025b565b620002a686836200025b565b95508019841693508086168417925050509392505050565b6000819050919050565b6000819050919050565b6000620002f3620002ed620002e784620002be565b620002c8565b620002be565b9050919050565b6000819050919050565b6200030f83620002d2565b620003276200031e82620002fa565b84845462000268565b825550505050565b600090565b6200033e6200032f565b6200034b81848462000304565b505050565b5b8181101562000373576200036760008262000334565b60018101905062000351565b5050565b601f821115620003c2576200038c8162000236565b62000397846200024b565b81016020851015620003a7578190505b620003bf620003b6856200024b565b83018262000350565b50505b505050565b600082821c905092915050565b6000620003e760001984600802620003c7565b1980831691505092915050565b6000620004028383620003d4565b9150826002028217905092915050565b6200041d8262000198565b67ffffffffffffffff811115620004395762000438620001a3565b5b62000445825462000201565b6200045282828562000377565b600060209050601f8311600181146200048a576000841562000475578287015190505b620004818582620003f4565b865550620004f1565b601f1984166200049a8662000236565b60005b82811015620004c4578489015182556001820191506020850194506020810190506200049d565b86831015620004e45784890151620004e0601f891682620003d4565b8355505b6001600288020188555050505b505050505050565b612f5180620005096000396000f3fe608060405234801561001057600080fd5b50600436106101165760003560e01c8063715018a6116100a2578063b88d4fde11610071578063b88d4fde146102df578063c87b56dd146102fb578063e985e9c51461032b578063eacabe141461035b578063f2fde38b1461038b57610116565b8063715018a61461027d5780638da5cb5b1461028757806395d89b41146102a5578063a22cb465146102c357610116565b806323b872dd116100e957806323b872dd146101b557806342842e0e146101d15780636352211e146101ed5780636be9a6f11461021d57806370a082311461024d57610116565b806301ffc9a71461011b57806306fdde031461014b578063081812fc14610169578063095ea7b314610199575b600080fd5b61013560048036038101906101309190611cd6565b6103a7565b6040516101429190611d1e565b60405180910390f35b610153610408565b6040516101609190611dc9565b60405180910390f35b610183600480360381019061017e9190611e21565b61049a565b6040516101909190611e8f565b60405180910390f35b6101b360048036038101906101ae9190611ed6565b6104e0565b005b6101cf60048036038101906101ca9190611f16565b6105f7565b005b6101eb60048036038101906101e69190611f16565b610657565b005b61020760048036038101906102029190611e21565b610677565b6040516102149190611e8f565b60405180910390f35b61023760048036038101906102329190611e21565b6106fd565b6040516102449190611dc9565b60405180910390f35b61026760048036038101906102629190611f69565b610757565b6040516102749190611fa5565b60405180910390f35b61028561080e565b005b61028f610822565b60405161029c9190611e8f565b60405180910390f35b6102ad61084c565b6040516102ba9190611dc9565b60405180910390f35b6102dd60048036038101906102d89190611fec565b6108de565b005b6102f960048036038101906102f49190612161565b6108f4565b005b61031560048036038101906103109190611e21565b610956565b6040516103229190611dc9565b60405180910390f35b610345600480360381019061034091906121e4565b610a68565b6040516103529190611d1e565b60405180910390f35b610375600480360381019061037091906122c5565b610afc565b6040516103829190611fa5565b60405180910390f35b6103a560048036038101906103a09190611f69565b610b3c565b005b6000634906490660e01b7bffffffffffffffffffffffffffffffffffffffffffffffffffffffff1916827bffffffffffffffffffffffffffffffffffffffffffffffffffffffff19161480610401575061040082610bbf565b5b9050919050565b60606000805461041790612350565b80601f016020809104026020016040519081016040528092919081815260200182805461044390612350565b80156104905780601f1061046557610100808354040283529160200191610490565b820191906000526020600020905b81548152906001019060200180831161047357829003601f168201915b5050505050905090565b60006104a582610ca1565b6004600083815260200190815260200160002060009054906101000a900473ffffffffffffffffffffffffffffffffffffffff169050919050565b60006104eb82610677565b90508073ffffffffffffffffffffffffffffffffffffffff168373ffffffffffffffffffffffffffffffffffffffff160361055b576040517f08c379a0000000000000000000000000000000000000000000000000000000008152600401610552906123f3565b60405180910390fd5b8073ffffffffffffffffffffffffffffffffffffffff1661057a610cec565b73ffffffffffffffffffffffffffffffffffffffff1614806105a957506105a8816105a3610cec565b610a68565b5b6105e8576040517f08c379a00000000000000000000000000000000000000000000000000000000081526004016105df90612485565b60405180910390fd5b6105f28383610cf4565b505050565b610608610602610cec565b82610dad565b610647576040517f08c379a000000000000000000000000000000000000000000000000000000000815260040161063e90612517565b60405180910390fd5b610652838383610e42565b505050565b610672838383604051806020016040528060008152506108f4565b505050565b6000806106838361113b565b9050600073ffffffffffffffffffffffffffffffffffffffff168173ffffffffffffffffffffffffffffffffffffffff16036106f4576040517f08c379a00000000000000000000000000000000000000000000000000000000081526004016106eb90612583565b60405180910390fd5b80915050919050565b606061070882611178565b610747576040517f08c379a000000000000000000000000000000000000000000000000000000000815260040161073e906125ef565b60405180910390fd5b61075082610956565b9050919050565b60008073ffffffffffffffffffffffffffffffffffffffff168273ffffffffffffffffffffffffffffffffffffffff16036107c7576040517f08c379a00000000000000000000000000000000000000000000000000000000081526004016107be90612681565b60405180910390fd5b600360008373ffffffffffffffffffffffffffffffffffffffff1673ffffffffffffffffffffffffffffffffffffffff168152602001908152602001600020549050919050565b6108166111b9565b6108206000611237565b565b6000600760009054906101000a900473ffffffffffffffffffffffffffffffffffffffff16905090565b60606001805461085b90612350565b80601f016020809104026020016040519081016040528092919081815260200182805461088790612350565b80156108d45780601f106108a9576101008083540402835291602001916108d4565b820191906000526020600020905b8154815290600101906020018083116108b757829003601f168201915b5050505050905090565b6108f06108e9610cec565b83836112fd565b5050565b6109056108ff610cec565b83610dad565b610944576040517f08c379a000000000000000000000000000000000000000000000000000000000815260040161093b90612517565b60405180910390fd5b61095084848484611469565b50505050565b606061096182610ca1565b600060066000848152602001908152602001600020805461098190612350565b80601f01602080910402602001604051908101604052809291908181526020018280546109ad90612350565b80156109fa5780601f106109cf576101008083540402835291602001916109fa565b820191906000526020600020905b8154815290600101906020018083116109dd57829003601f168201915b505050505090506000610a0b6114c5565b90506000815103610a20578192505050610a63565b600082511115610a55578082604051602001610a3d9291906126dd565b60405160208183030381529060405292505050610a63565b610a5e846114dc565b925050505b919050565b6000600560008473ffffffffffffffffffffffffffffffffffffffff1673ffffffffffffffffffffffffffffffffffffffff16815260200190815260200160002060008373ffffffffffffffffffffffffffffffffffffffff1673ffffffffffffffffffffffffffffffffffffffff16815260200190815260200160002060009054906101000a900460ff16905092915050565b6000610b066111b9565b610b106008611544565b6000610b1c600861155a565b9050610b288482611568565b610b328184611785565b8091505092915050565b610b446111b9565b600073ffffffffffffffffffffffffffffffffffffffff168173ffffffffffffffffffffffffffffffffffffffff1603610bb3576040517f08c379a0000000000000000000000000000000000000000000000000000000008152600401610baa90612773565b60405180910390fd5b610bbc81611237565b50565b60007f80ac58cd000000000000000000000000000000000000000000000000000000007bffffffffffffffffffffffffffffffffffffffffffffffffffffffff1916827bffffffffffffffffffffffffffffffffffffffffffffffffffffffff19161480610c8a57507f5b5e139f000000000000000000000000000000000000000000000000000000007bffffffffffffffffffffffffffffffffffffffffffffffffffffffff1916827bffffffffffffffffffffffffffffffffffffffffffffffffffffffff1916145b80610c9a5750610c9982611829565b5b9050919050565b610caa81611178565b610ce9576040517f08c379a0000000000000000000000000000000000000000000000000000000008152600401610ce090612583565b60405180910390fd5b50565b600033905090565b816004600083815260200190815260200160002060006101000a81548173ffffffffffffffffffffffffffffffffffffffff021916908373ffffffffffffffffffffffffffffffffffffffff160217905550808273ffffffffffffffffffffffffffffffffffffffff16610d6783610677565b73ffffffffffffffffffffffffffffffffffffffff167f8c5be1e5ebec7d5bd14f71427d1e84f3dd0314c0f7b2291e5b200ac8c7c3b92560405160405180910390a45050565b600080610db983610677565b90508073ffffffffffffffffffffffffffffffffffffffff168473ffffffffffffffffffffffffffffffffffffffff161480610dfb5750610dfa8185610a68565b5b80610e3957508373ffffffffffffffffffffffffffffffffffffffff16610e218461049a565b73ffffffffffffffffffffffffffffffffffffffff16145b91505092915050565b8273ffffffffffffffffffffffffffffffffffffffff16610e6282610677565b73ffffffffffffffffffffffffffffffffffffffff1614610eb8576040517f08c379a0000000000000000000000000000000000000000000000000000000008152600401610eaf90612805565b60405180910390fd5b600073ffffffffffffffffffffffffffffffffffffffff168273ffffffffffffffffffffffffffffffffffffffff1603610f27576040517f08c379a0000000000000000000000000000000000000000000000000000000008152600401610f1e90612897565b60405180910390fd5b610f348383836001611893565b8273ffffffffffffffffffffffffffffffffffffffff16610f5482610677565b73ffffffffffffffffffffffffffffffffffffffff1614610faa576040517f08c379a0000000000000000000000000000000000000000000000000000000008152600401610fa190612805565b60405180910390fd5b6004600082815260200190815260200160002060006101000a81549073ffffffffffffffffffffffffffffffffffffffff02191690556001600360008573ffffffffffffffffffffffffffffffffffffffff1673ffffffffffffffffffffffffffffffffffffffff168152602001908152602001600020600082825403925050819055506001600360008473ffffffffffffffffffffffffffffffffffffffff1673ffffffffffffffffffffffffffffffffffffffff16815260200190815260200160002060008282540192505081905550816002600083815260200190815260200160002060006101000a81548173ffffffffffffffffffffffffffffffffffffffff021916908373ffffffffffffffffffffffffffffffffffffffff160217905550808273ffffffffffffffffffffffffffffffffffffffff168473ffffffffffffffffffffffffffffffffffffffff167fddf252ad1be2c89b69c2b068fc378daa952ba7f163c4a11628f55a4df523b3ef60405160405180910390a46111368383836001611899565b505050565b60006002600083815260200190815260200160002060009054906101000a900473ffffffffffffffffffffffffffffffffffffffff169050919050565b60008073ffffffffffffffffffffffffffffffffffffffff1661119a8361113b565b73ffffffffffffffffffffffffffffffffffffffff1614159050919050565b6111c1610cec565b73ffffffffffffffffffffffffffffffffffffffff166111df610822565b73ffffffffffffffffffffffffffffffffffffffff1614611235576040517f08c379a000000000000000000000000000000000000000000000000000000000815260040161122c90612903565b60405180910390fd5b565b6000600760009054906101000a900473ffffffffffffffffffffffffffffffffffffffff16905081600760006101000a81548173ffffffffffffffffffffffffffffffffffffffff021916908373ffffffffffffffffffffffffffffffffffffffff1602179055508173ffffffffffffffffffffffffffffffffffffffff168173ffffffffffffffffffffffffffffffffffffffff167f8be0079c531659141344cd1fd0a4f28419497f9722a3daafe3b4186f6b6457e060405160405180910390a35050565b8173ffffffffffffffffffffffffffffffffffffffff168373ffffffffffffffffffffffffffffffffffffffff160361136b576040517f08c379a00000000000000000000000000000000000000000000000000000000081526004016113629061296f565b60405180910390fd5b80600560008573ffffffffffffffffffffffffffffffffffffffff1673ffffffffffffffffffffffffffffffffffffffff16815260200190815260200160002060008473ffffffffffffffffffffffffffffffffffffffff1673ffffffffffffffffffffffffffffffffffffffff16815260200190815260200160002060006101000a81548160ff0219169083151502179055508173ffffffffffffffffffffffffffffffffffffffff168373ffffffffffffffffffffffffffffffffffffffff167f17307eab39ab6107e8899845ad3d59bd9653f200f220920489ca2b5937696c318360405161145c9190611d1e565b60405180910390a3505050565b611474848484610e42565b6114808484848461189f565b6114bf576040517f08c379a00000000000000000000000000000000000000000000000000000000081526004016114b690612a01565b60405180910390fd5b50505050565b606060405180602001604052806000815250905090565b60606114e782610ca1565b60006114f16114c5565b90506000815111611511576040518060200160405280600081525061153c565b8061151b84611a26565b60405160200161152c9291906126dd565b6040516020818303038152906040525b915050919050565b6001816000016000828254019250508190555050565b600081600001549050919050565b600073ffffffffffffffffffffffffffffffffffffffff168273ffffffffffffffffffffffffffffffffffffffff16036115d7576040517f08c379a00000000000000000000000000000000000000000000000000000000081526004016115ce90612a6d565b60405180910390fd5b6115e081611178565b15611620576040517f08c379a000000000000000000000000000000000000000000000000000000000815260040161161790612ad9565b60405180910390fd5b61162e600083836001611893565b61163781611178565b15611677576040517f08c379a000000000000000000000000000000000000000000000000000000000815260040161166e90612ad9565b60405180910390fd5b6001600360008473ffffffffffffffffffffffffffffffffffffffff1673ffffffffffffffffffffffffffffffffffffffff16815260200190815260200160002060008282540192505081905550816002600083815260200190815260200160002060006101000a81548173ffffffffffffffffffffffffffffffffffffffff021916908373ffffffffffffffffffffffffffffffffffffffff160217905550808273ffffffffffffffffffffffffffffffffffffffff16600073ffffffffffffffffffffffffffffffffffffffff167fddf252ad1be2c89b69c2b068fc378daa952ba7f163c4a11628f55a4df523b3ef60405160405180910390a4611781600083836001611899565b5050565b61178e82611178565b6117cd576040517f08c379a00000000000000000000000000000000000000000000000000000000081526004016117c490612b6b565b60405180910390fd5b806006600084815260200190815260200160002090816117ed9190612d37565b507ff8e1a15aba9398e019f0b49df1a4fde98ee17ae345cb5f6b5e2c27f5033e8ce78260405161181d9190611fa5565b60405180910390a15050565b60007f01ffc9a7000000000000000000000000000000000000000000000000000000007bffffffffffffffffffffffffffffffffffffffffffffffffffffffff1916827bffffffffffffffffffffffffffffffffffffffffffffffffffffffff1916149050919050565b50505050565b50505050565b60006118c08473ffffffffffffffffffffffffffffffffffffffff16611af4565b15611a19578373ffffffffffffffffffffffffffffffffffffffff1663150b7a026118e9610cec565b8786866040518563ffffffff1660e01b815260040161190b9493929190612e5e565b6020604051808303816000875af192505050801561194757506040513d601f19601f820116820180604052508101906119449190612ebf565b60015b6119c9573d8060008114611977576040519150601f19603f3d011682016040523d82523d6000602084013e61197c565b606091505b5060008151036119c1576040517f08c379a00000000000000000000000000000000000000000000000000000000081526004016119b890612a01565b60405180910390fd5b805181602001fd5b63150b7a0260e01b7bffffffffffffffffffffffffffffffffffffffffffffffffffffffff1916817bffffffffffffffffffffffffffffffffffffffffffffffffffffffff191614915050611a1e565b600190505b949350505050565b606060006001611a3584611b17565b01905060008167ffffffffffffffff811115611a5457611a53612036565b5b6040519080825280601f01601f191660200182016040528015611a865781602001600182028036833780820191505090505b509050600082602001820190505b600115611ae9578080600190039150507f3031323334353637383961626364656600000000000000000000000000000000600a86061a8153600a8581611add57611adc612eec565b5b04945060008503611a94575b819350505050919050565b6000808273ffffffffffffffffffffffffffffffffffffffff163b119050919050565b600080600090507a184f03e93ff9f4daa797ed6e38ed64bf6a1f0100000000000000008310611b75577a184f03e93ff9f4daa797ed6e38ed64bf6a1f0100000000000000008381611b6b57611b6a612eec565b5b0492506040810190505b6d04ee2d6d415b85acef81000000008310611bb2576d04ee2d6d415b85acef81000000008381611ba857611ba7612eec565b5b0492506020810190505b662386f26fc100008310611be157662386f26fc100008381611bd757611bd6612eec565b5b0492506010810190505b6305f5e1008310611c0a576305f5e1008381611c0057611bff612eec565b5b0492506008810190505b6127108310611c2f576127108381611c2557611c24612eec565b5b0492506004810190505b60648310611c525760648381611c4857611c47612eec565b5b0492506002810190505b600a8310611c61576001810190505b80915050919050565b6000604051905090565b600080fd5b600080fd5b60007fffffffff0000000000000000000000000000000000000000000000000000000082169050919050565b611cb381611c7e565b8114611cbe57600080fd5b50565b600081359050611cd081611caa565b92915050565b600060208284031215611cec57611ceb611c74565b5b6000611cfa84828501611cc1565b91505092915050565b60008115159050919050565b611d1881611d03565b82525050565b6000602082019050611d336000830184611d0f565b92915050565b600081519050919050565b600082825260208201905092915050565b60005b83811015611d73578082015181840152602081019050611d58565b60008484015250505050565b6000601f19601f8301169050919050565b6000611d9b82611d39565b611da58185611d44565b9350611db5818560208601611d55565b611dbe81611d7f565b840191505092915050565b60006020820190508181036000830152611de38184611d90565b905092915050565b6000819050919050565b611dfe81611deb565b8114611e0957600080fd5b50565b600081359050611e1b81611df5565b92915050565b600060208284031215611e3757611e36611c74565b5b6000611e4584828501611e0c565b91505092915050565b600073ffffffffffffffffffffffffffffffffffffffff82169050919050565b6000611e7982611e4e565b9050919050565b611e8981611e6e565b82525050565b6000602082019050611ea46000830184611e80565b92915050565b611eb381611e6e565b8114611ebe57600080fd5b50565b600081359050611ed081611eaa565b92915050565b60008060408385031215611eed57611eec611c74565b5b6000611efb85828601611ec1565b9250506020611f0c85828601611e0c565b9150509250929050565b600080600060608486031215611f2f57611f2e611c74565b5b6000611f3d86828701611ec1565b9350506020611f4e86828701611ec1565b9250506040611f5f86828701611e0c565b9150509250925092565b600060208284031215611f7f57611f7e611c74565b5b6000611f8d84828501611ec1565b91505092915050565b611f9f81611deb565b82525050565b6000602082019050611fba6000830184611f96565b92915050565b611fc981611d03565b8114611fd457600080fd5b50565b600081359050611fe681611fc0565b92915050565b6000806040838503121561200357612002611c74565b5b600061201185828601611ec1565b925050602061202285828601611fd7565b9150509250929050565b600080fd5b600080fd5b7f4e487b7100000000000000000000000000000000000000000000000000000000600052604160045260246000fd5b61206e82611d7f565b810181811067ffffffffffffffff8211171561208d5761208c612036565b5b80604052505050565b60006120a0611c6a565b90506120ac8282612065565b919050565b600067ffffffffffffffff8211156120cc576120cb612036565b5b6120d582611d7f565b9050602081019050919050565b82818337600083830152505050565b60006121046120ff846120b1565b612096565b9050828152602081018484840111156121205761211f612031565b5b61212b8482856120e2565b509392505050565b600082601f8301126121485761214761202c565b5b81356121588482602086016120f1565b91505092915050565b6000806000806080858703121561217b5761217a611c74565b5b600061218987828801611ec1565b945050602061219a87828801611ec1565b93505060406121ab87828801611e0c565b925050606085013567ffffffffffffffff8111156121cc576121cb611c79565b5b6121d887828801612133565b91505092959194509250565b600080604083850312156121fb576121fa611c74565b5b600061220985828601611ec1565b925050602061221a85828601611ec1565b9150509250929050565b600067ffffffffffffffff82111561223f5761223e612036565b5b61224882611d7f565b9050602081019050919050565b600061226861226384612224565b612096565b90508281526020810184848401111561228457612283612031565b5b61228f8482856120e2565b509392505050565b600082601f8301126122ac576122ab61202c565b5b81356122bc848260208601612255565b91505092915050565b600080604083850312156122dc576122db611c74565b5b60006122ea85828601611ec1565b925050602083013567ffffffffffffffff81111561230b5761230a611c79565b5b61231785828601612297565b9150509250929050565b7f4e487b7100000000000000000000000000000000000000000000000000000000600052602260045260246000fd5b6000600282049050600182168061236857607f821691505b60208210810361237b5761237a612321565b5b50919050565b7f4552433732313a20617070726f76616c20746f2063757272656e74206f776e6560008201527f7200000000000000000000000000000000000000000000000000000000000000602082015250565b60006123dd602183611d44565b91506123e882612381565b604082019050919050565b6000602082019050818103600083015261240c816123d0565b9050919050565b7f4552433732313a20617070726f76652063616c6c6572206973206e6f7420746f60008201527f6b656e206f776e6572206f7220617070726f76656420666f7220616c6c000000602082015250565b600061246f603d83611d44565b915061247a82612413565b604082019050919050565b6000602082019050818103600083015261249e81612462565b9050919050565b7f4552433732313a2063616c6c6572206973206e6f7420746f6b656e206f776e6560008201527f72206f7220617070726f76656400000000000000000000000000000000000000602082015250565b6000612501602d83611d44565b915061250c826124a5565b604082019050919050565b60006020820190508181036000830152612530816124f4565b9050919050565b7f4552433732313a20696e76616c696420746f6b656e2049440000000000000000600082015250565b600061256d601883611d44565b915061257882612537565b602082019050919050565b6000602082019050818103600083015261259c81612560565b9050919050565b7f546f6b656e20494420646f6573206e6f74206578697374000000000000000000600082015250565b60006125d9601783611d44565b91506125e4826125a3565b602082019050919050565b60006020820190508181036000830152612608816125cc565b9050919050565b7f4552433732313a2061646472657373207a65726f206973206e6f74206120766160008201527f6c6964206f776e65720000000000000000000000000000000000000000000000602082015250565b600061266b602983611d44565b91506126768261260f565b604082019050919050565b6000602082019050818103600083015261269a8161265e565b9050919050565b600081905092915050565b60006126b782611d39565b6126c181856126a1565b93506126d1818560208601611d55565b80840191505092915050565b60006126e982856126ac565b91506126f582846126ac565b91508190509392505050565b7f4f776e61626c653a206e6577206f776e657220697320746865207a65726f206160008201527f6464726573730000000000000000000000000000000000000000000000000000602082015250565b600061275d602683611d44565b915061276882612701565b604082019050919050565b6000602082019050818103600083015261278c81612750565b9050919050565b7f4552433732313a207472616e736665722066726f6d20696e636f72726563742060008201527f6f776e6572000000000000000000000000000000000000000000000000000000602082015250565b60006127ef602583611d44565b91506127fa82612793565b604082019050919050565b6000602082019050818103600083015261281e816127e2565b9050919050565b7f4552433732313a207472616e7366657220746f20746865207a65726f2061646460008201527f7265737300000000000000000000000000000000000000000000000000000000602082015250565b6000612881602483611d44565b915061288c82612825565b604082019050919050565b600060208201905081810360008301526128b081612874565b9050919050565b7f4f776e61626c653a2063616c6c6572206973206e6f7420746865206f776e6572600082015250565b60006128ed602083611d44565b91506128f8826128b7565b602082019050919050565b6000602082019050818103600083015261291c816128e0565b9050919050565b7f4552433732313a20617070726f766520746f2063616c6c657200000000000000600082015250565b6000612959601983611d44565b915061296482612923565b602082019050919050565b600060208201905081810360008301526129888161294c565b9050919050565b7f4552433732313a207472616e7366657220746f206e6f6e20455243373231526560008201527f63656976657220696d706c656d656e7465720000000000000000000000000000602082015250565b60006129eb603283611d44565b91506129f68261298f565b604082019050919050565b60006020820190508181036000830152612a1a816129de565b9050919050565b7f4552433732313a206d696e7420746f20746865207a65726f2061646472657373600082015250565b6000612a57602083611d44565b9150612a6282612a21565b602082019050919050565b60006020820190508181036000830152612a8681612a4a565b9050919050565b7f4552433732313a20746f6b656e20616c7265616479206d696e74656400000000600082015250565b6000612ac3601c83611d44565b9150612ace82612a8d565b602082019050919050565b60006020820190508181036000830152612af281612ab6565b9050919050565b7f45524337323155524953746f726167653a2055524920736574206f66206e6f6e60008201527f6578697374656e7420746f6b656e000000000000000000000000000000000000602082015250565b6000612b55602e83611d44565b9150612b6082612af9565b604082019050919050565b60006020820190508181036000830152612b8481612b48565b9050919050565b60008190508160005260206000209050919050565b60006020601f8301049050919050565b600082821b905092915050565b600060088302612bed7fffffffffffffffffffffffffffffffffffffffffffffffffffffffffffffffff82612bb0565b612bf78683612bb0565b95508019841693508086168417925050509392505050565b6000819050919050565b6000612c34612c2f612c2a84611deb565b612c0f565b611deb565b9050919050565b6000819050919050565b612c4e83612c19565b612c62612c5a82612c3b565b848454612bbd565b825550505050565b600090565b612c77612c6a565b612c82818484612c45565b505050565b5b81811015612ca657612c9b600082612c6f565b600181019050612c88565b5050565b601f821115612ceb57612cbc81612b8b565b612cc584612ba0565b81016020851015612cd4578190505b612ce8612ce085612ba0565b830182612c87565b50505b505050565b600082821c905092915050565b6000612d0e60001984600802612cf0565b1980831691505092915050565b6000612d278383612cfd565b9150826002028217905092915050565b612d4082611d39565b67ffffffffffffffff811115612d5957612d58612036565b5b612d638254612350565b612d6e828285612caa565b600060209050601f831160018114612da15760008415612d8f578287015190505b612d998582612d1b565b865550612e01565b601f198416612daf86612b8b565b60005b82811015612dd757848901518255600182019150602085019450602081019050612db2565b86831015612df45784890151612df0601f891682612cfd565b8355505b6001600288020188555050505b505050505050565b600081519050919050565b600082825260208201905092915050565b6000612e3082612e09565b612e3a8185612e14565b9350612e4a818560208601611d55565b612e5381611d7f565b840191505092915050565b6000608082019050612e736000830187611e80565b612e806020830186611e80565b612e8d6040830185611f96565b8181036060830152612e9f8184612e25565b905095945050505050565b600081519050612eb981611caa565b92915050565b600060208284031215612ed557612ed4611c74565b5b6000612ee384828501612eaa565b91505092915050565b7f4e487b7100000000000000000000000000000000000000000000000000000000600052601260045260246000fdfea2646970667358221220b32642f2350ada9be11210f3c900e41ebb1ad3a655bcf9a15503dcb4ac86aaf064736f6c63430008130033",
  "linkReferences": {},
  "deployedLinkReferences": {}
}