{
  "_format": "hh-sol-artifact-1",
  "contractName": "ERC5643",
  "sourceName": "contracts/subscriptionNFT.sol",
  "abi": [
    {
      "inputs": [],
      "stateMutability": "nonpayable",
      "type": "constructor"
    },
    {
      "inputs": [],
      "name": "CallerNotOwnerNorApproved",
      "type": "error"
    },
    {
      "inputs": [],
      "name": "InsufficientPayment",
      "type": "error"
    },
    {
      "inputs": [],
      "name": "InvalidTokenId",
      "type": "error"
    },
    {
      "inputs": [],
      "name": "RenewalTooLong",
      "type": "error"
    },
    {
      "inputs": [],
      "name": "RenewalTooShort",
      "type": "error"
    },
    {
      "inputs": [],
      "name": "SubscriptionNotRenewable",
      "type": "error"
    },
    {
      "anonymous": false,
      "inputs": [
        {
          "indexed": true,
          "internalType": "address",
          "name": "owner",
          "type": "address"
        },
        {
          "indexed": true,
          "internalType": "address",
          "name": "approved",
          "type": "address"
        },
        {
          "indexed": true,
          "internalType": "uint256",
          "name": "tokenId",
          "type": "uint256"
        }
      ],
      "name": "Approval",
      "type": "event"
    },
    {
      "anonymous": false,
      "inputs": [
        {
          "indexed": true,
          "internalType": "address",
          "name": "owner",
          "type": "address"
        },
        {
          "indexed": true,
          "internalType": "address",
          "name": "operator",
          "type": "address"
        },
        {
          "indexed": false,
          "internalType": "bool",
          "name": "approved",
          "type": "bool"
        }
      ],
      "name": "ApprovalForAll",
      "type": "event"
    },
    {
      "anonymous": false,
      "inputs": [
        {
          "indexed": false,
          "internalType": "uint256",
          "name": "_fromTokenId",
          "type": "uint256"
        },
        {
          "indexed": false,
          "internalType": "uint256",
          "name": "_toTokenId",
          "type": "uint256"
        }
      ],
      "name": "BatchMetadataUpdate",
      "type": "event"
    },
    {
      "anonymous": false,
      "inputs": [
        {
          "indexed": false,
          "internalType": "uint256",
          "name": "_tokenId",
          "type": "uint256"
        }
      ],
      "name": "MetadataUpdate",
      "type": "event"
    },
    {
      "anonymous": false,
      "inputs": [
        {
          "indexed": true,
          "internalType": "address",
          "name": "previousOwner",
          "type": "address"
        },
        {
          "indexed": true,
          "internalType": "address",
          "name": "newOwner",
          "type": "address"
        }
      ],
      "name": "OwnershipTransferred",
      "type": "event"
    },
    {
      "anonymous": false,
      "inputs": [
        {
          "indexed": true,
          "internalType": "uint256",
          "name": "tokenId",
          "type": "uint256"
        },
        {
          "indexed": false,
          "internalType": "uint64",
          "name": "expiration",
          "type": "uint64"
        }
      ],
      "name": "SubscriptionUpdate",
      "type": "event"
    },
    {
      "anonymous": false,
      "inputs": [
        {
          "indexed": true,
          "internalType": "address",
          "name": "from",
          "type": "address"
        },
        {
          "indexed": true,
          "internalType": "address",
          "name": "to",
          "type": "address"
        },
        {
          "indexed": true,
          "internalType": "uint256",
          "name": "tokenId",
          "type": "uint256"
        }
      ],
      "name": "Transfer",
      "type": "event"
    },
    {
      "inputs": [
        {
          "internalType": "address",
          "name": "to",
          "type": "address"
        },
        {
          "internalType": "uint256",
          "name": "tokenId",
          "type": "uint256"
        }
      ],
      "name": "approve",
      "outputs": [],
      "stateMutability": "nonpayable",
      "type": "function"
    },
    {
      "inputs": [
        {
          "internalType": "address",
          "name": "owner",
          "type": "address"
        }
      ],
      "name": "balanceOf",
      "outputs": [
        {
          "internalType": "uint256",
          "name": "",
          "type": "uint256"
        }
      ],
      "stateMutability": "view",
      "type": "function"
    },
    {
      "inputs": [
        {
          "internalType": "uint256",
          "name": "tokenId",
          "type": "uint256"
        }
      ],
      "name": "cancelSubscription",
      "outputs": [],
      "stateMutability": "payable",
      "type": "function"
    },
    {
      "inputs": [
        {
          "internalType": "uint256",
          "name": "tokenId",
          "type": "uint256"
        }
      ],
      "name": "expiresAt",
      "outputs": [
        {
          "internalType": "uint64",
          "name": "",
          "type": "uint64"
        }
      ],
      "stateMutability": "view",
      "type": "function"
    },
    {
      "inputs": [
        {
          "internalType": "uint256",
          "name": "tokenId",
          "type": "uint256"
        }
      ],
      "name": "getApproved",
      "outputs": [
        {
          "internalType": "address",
          "name": "",
          "type": "address"
        }
      ],
      "stateMutability": "view",
      "type": "function"
    },
    {
      "inputs": [
        {
          "internalType": "uint256",
          "name": "tokenId",
          "type": "uint256"
        }
      ],
      "name": "getSubscriptionByTokenId",
      "outputs": [
        {
          "internalType": "string",
          "name": "",
          "type": "string"
        }
      ],
      "stateMutability": "view",
      "type": "function"
    },
    {
      "inputs": [
        {
          "internalType": "address",
          "name": "owner",
          "type": "address"
        },
        {
          "internalType": "address",
          "name": "operator",
          "type": "address"
        }
      ],
      "name": "isApprovedForAll",
      "outputs": [
        {
          "internalType": "bool",
          "name": "",
          "type": "bool"
        }
      ],
      "stateMutability": "view",
      "type": "function"
    },
    {
      "inputs": [
        {
          "internalType": "uint256",
          "name": "tokenId",
          "type": "uint256"
        }
      ],
      "name": "isRenewable",
      "outputs": [
        {
          "internalType": "bool",
          "name": "",
          "type": "bool"
        }
      ],
      "stateMutability": "view",
      "type": "function"
    },
    {
      "inputs": [
        {
          "internalType": "address",
          "name": "recipient",
          "type": "address"
        },
        {
          "internalType": "string",
          "name": "tokenURI",
          "type": "string"
        }
      ],
      "name": "mintSubscriptionNFT",
      "outputs": [
        {
          "internalType": "uint256",
          "name": "",
          "type": "uint256"
        }
      ],
      "stateMutability": "nonpayable",
      "type": "function"
    },
    {
      "inputs": [],
      "name": "name",
      "outputs": [
        {
          "internalType": "string",
          "name": "",
          "type": "string"
        }
      ],
      "stateMutability": "view",
      "type": "function"
    },
    {
      "inputs": [],
      "name": "owner",
      "outputs": [
        {
          "internalType": "address",
          "name": "",
          "type": "address"
        }
      ],
      "stateMutability": "view",
      "type": "function"
    },
    {
      "inputs": [
        {
          "internalType": "uint256",
          "name": "tokenId",
          "type": "uint256"
        }
      ],
      "name": "ownerOf",
      "outputs": [
        {
          "internalType": "address",
          "name": "",
          "type": "address"
        }
      ],
      "stateMutability": "view",
      "type": "function"
    },
    {
      "inputs": [],
      "name": "pricePerSecond",
      "outputs": [
        {
          "internalType": "uint256",
          "name": "",
          "type": "uint256"
        }
      ],
      "stateMutability": "view",
      "type": "function"
    },
    {
      "inputs": [
        {
          "internalType": "uint256",
          "name": "tokenId",
          "type": "uint256"
        },
        {
          "internalType": "uint64",
          "name": "duration",
          "type": "uint64"
        }
      ],
      "name": "renewSubscription",
      "outputs": [],
      "stateMutability": "payable",
      "type": "function"
    },
    {
      "inputs": [],
      "name": "renounceOwnership",
      "outputs": [],
      "stateMutability": "nonpayable",
      "type": "function"
    },
    {
      "inputs": [
        {
          "internalType": "address",
          "name": "from",
          "type": "address"
        },
        {
          "internalType": "address",
          "name": "to",
          "type": "address"
        },
        {
          "internalType": "uint256",
          "name": "tokenId",
          "type": "uint256"
        }
      ],
      "name": "safeTransferFrom",
      "outputs": [],
      "stateMutability": "nonpayable",
      "type": "function"
    },
    {
      "inputs": [
        {
          "internalType": "address",
          "name": "from",
          "type": "address"
        },
        {
          "internalType": "address",
          "name": "to",
          "type": "address"
        },
        {
          "internalType": "uint256",
          "name": "tokenId",
          "type": "uint256"
        },
        {
          "internalType": "bytes",
          "name": "data",
          "type": "bytes"
        }
      ],
      "name": "safeTransferFrom",
      "outputs": [],
      "stateMutability": "nonpayable",
      "type": "function"
    },
    {
      "inputs": [
        {
          "internalType": "address",
          "name": "operator",
          "type": "address"
        },
        {
          "internalType": "bool",
          "name": "approved",
          "type": "bool"
        }
      ],
      "name": "setApprovalForAll",
      "outputs": [],
      "stateMutability": "nonpayable",
      "type": "function"
    },
    {
      "inputs": [
        {
          "internalType": "bytes4",
          "name": "interfaceId",
          "type": "bytes4"
        }
      ],
      "name": "supportsInterface",
      "outputs": [
        {
          "internalType": "bool",
          "name": "",
          "type": "bool"
        }
      ],
      "stateMutability": "view",
      "type": "function"
    },
    {
      "inputs": [],
      "name": "symbol",
      "outputs": [
        {
          "internalType": "string",
          "name": "",
          "type": "string"
        }
      ],
      "stateMutability": "view",
      "type": "function"
    },
    {
      "inputs": [
        {
          "internalType": "uint256",
          "name": "tokenId",
          "type": "uint256"
        }
      ],
      "name": "tokenURI",
      "outputs": [
        {
          "internalType": "string",
          "name": "",
          "type": "string"
        }
      ],
      "stateMutability": "view",
      "type": "function"
    },
    {
      "inputs": [
        {
          "internalType": "address",
          "name": "from",
          "type": "address"
        },
        {
          "internalType": "address",
          "name": "to",
          "type": "address"
        },
        {
          "internalType": "uint256",
          "name": "tokenId",
          "type": "uint256"
        }
      ],
      "name": "transferFrom",
      "outputs": [],
      "stateMutability": "nonpayable",
      "type": "function"
    },
    {
      "inputs": [
        {
          "internalType": "address",
          "name": "newOwner",
          "type": "address"
        }
      ],
      "name": "transferOwnership",
      "outputs": [],
      "stateMutability": "nonpayable",
      "type": "function"
    }
  ],
  "bytecode": "0x60806040526408fb8fd9816009553480156200001a57600080fd5b506040518060400160405280601981526020017f537562736372697074696f6e466f6c6c6f775468654c656164000000000000008152506040518060400160405280600481526020017f5346544c0000000000000000000000000000000000000000000000000000000081525081600090816200009891906200041b565b508060019081620000aa91906200041b565b505050620000cd620000c1620000d360201b60201c565b620000db60201b60201c565b62000502565b600033905090565b6000600760009054906101000a900473ffffffffffffffffffffffffffffffffffffffff16905081600760006101000a81548173ffffffffffffffffffffffffffffffffffffffff021916908373ffffffffffffffffffffffffffffffffffffffff1602179055508173ffffffffffffffffffffffffffffffffffffffff168173ffffffffffffffffffffffffffffffffffffffff167f8be0079c531659141344cd1fd0a4f28419497f9722a3daafe3b4186f6b6457e060405160405180910390a35050565b600081519050919050565b7f4e487b7100000000000000000000000000000000000000000000000000000000600052604160045260246000fd5b7f4e487b7100000000000000000000000000000000000000000000000000000000600052602260045260246000fd5b600060028204905060018216806200022357607f821691505b602082108103620002395762000238620001db565b5b50919050565b60008190508160005260206000209050919050565b60006020601f8301049050919050565b600082821b905092915050565b600060088302620002a37fffffffffffffffffffffffffffffffffffffffffffffffffffffffffffffffff8262000264565b620002af868362000264565b95508019841693508086168417925050509392505050565b6000819050919050565b6000819050919050565b6000620002fc620002f6620002f084620002c7565b620002d1565b620002c7565b9050919050565b6000819050919050565b6200031883620002db565b62000330620003278262000303565b84845462000271565b825550505050565b600090565b6200034762000338565b620003548184846200030d565b505050565b5b818110156200037c57620003706000826200033d565b6001810190506200035a565b5050565b601f821115620003cb5762000395816200023f565b620003a08462000254565b81016020851015620003b0578190505b620003c8620003bf8562000254565b83018262000359565b50505b505050565b600082821c905092915050565b6000620003f060001984600802620003d0565b1980831691505092915050565b60006200040b8383620003dd565b9150826002028217905092915050565b6200042682620001a1565b67ffffffffffffffff811115620004425762000441620001ac565b5b6200044e82546200020a565b6200045b82828562000380565b600060209050601f8311600181146200049357600084156200047e578287015190505b6200048a8582620003fd565b865550620004fa565b601f198416620004a3866200023f565b60005b82811015620004cd57848901518255600182019150602085019450602081019050620004a6565b86831015620004ed5784890151620004e9601f891682620003dd565b8355505b6001600288020188555050505b505050505050565b61379980620005126000396000f3fe6080604052600436106101405760003560e01c80636352211e116100b6578063a22cb4651161006f578063a22cb46514610466578063b88d4fde1461048f578063c87b56dd146104b8578063cde317af146104f5578063e985e9c514610532578063f2fde38b1461056f57610140565b80636352211e1461036357806370a08231146103a0578063715018a6146103dd578063776ce868146103f45780638da5cb5b1461041057806395d89b411461043b57610140565b806317c957091161010857806317c9570914610250578063212350831461028d57806323b872dd146102a95780633804fd1f146102d25780633f299eaf146102fd57806342842e0e1461033a57610140565b806301ffc9a71461014557806306fdde0314610182578063081812fc146101ad578063095ea7b3146101ea5780631706a5b214610213575b600080fd5b34801561015157600080fd5b5061016c600480360381019061016791906123b3565b610598565b60405161017991906123fb565b60405180910390f35b34801561018e57600080fd5b50610197610612565b6040516101a491906124a6565b60405180910390f35b3480156101b957600080fd5b506101d460048036038101906101cf91906124fe565b6106a4565b6040516101e1919061256c565b60405180910390f35b3480156101f657600080fd5b50610211600480360381019061020c91906125b3565b6106ea565b005b34801561021f57600080fd5b5061023a60048036038101906102359190612728565b610801565b6040516102479190612793565b60405180910390f35b34801561025c57600080fd5b50610277600480360381019061027291906124fe565b610841565b60405161028491906127d1565b60405180910390f35b6102a760048036038101906102a291906124fe565b6108b1565b005b3480156102b557600080fd5b506102d060048036038101906102cb91906127ec565b610957565b005b3480156102de57600080fd5b506102e76109b7565b6040516102f49190612793565b60405180910390f35b34801561030957600080fd5b50610324600480360381019061031f91906124fe565b6109bd565b60405161033191906124a6565b60405180910390f35b34801561034657600080fd5b50610361600480360381019061035c91906127ec565b610a17565b005b34801561036f57600080fd5b5061038a600480360381019061038591906124fe565b610a37565b604051610397919061256c565b60405180910390f35b3480156103ac57600080fd5b506103c760048036038101906103c2919061283f565b610abd565b6040516103d49190612793565b60405180910390f35b3480156103e957600080fd5b506103f2610b74565b005b61040e60048036038101906104099190612898565b610b88565b005b34801561041c57600080fd5b50610425610d0e565b604051610432919061256c565b60405180910390f35b34801561044757600080fd5b50610450610d38565b60405161045d91906124a6565b60405180910390f35b34801561047257600080fd5b5061048d60048036038101906104889190612904565b610dca565b005b34801561049b57600080fd5b506104b660048036038101906104b191906129e5565b610de0565b005b3480156104c457600080fd5b506104df60048036038101906104da91906124fe565b610e42565b6040516104ec91906124a6565b60405180910390f35b34801561050157600080fd5b5061051c600480360381019061051791906124fe565b610f54565b60405161052991906123fb565b60405180910390f35b34801561053e57600080fd5b5061055960048036038101906105549190612a68565b610fa5565b60405161056691906123fb565b60405180910390f35b34801561057b57600080fd5b506105966004803603810190610591919061283f565b611039565b005b60007f8c65f84d000000000000000000000000000000000000000000000000000000007bffffffffffffffffffffffffffffffffffffffffffffffffffffffff1916827bffffffffffffffffffffffffffffffffffffffffffffffffffffffff1916148061060b575061060a826110bc565b5b9050919050565b60606000805461062190612ad7565b80601f016020809104026020016040519081016040528092919081815260200182805461064d90612ad7565b801561069a5780601f1061066f5761010080835404028352916020019161069a565b820191906000526020600020905b81548152906001019060200180831161067d57829003601f168201915b5050505050905090565b60006106af8261111d565b6004600083815260200190815260200160002060009054906101000a900473ffffffffffffffffffffffffffffffffffffffff169050919050565b60006106f582610a37565b90508073ffffffffffffffffffffffffffffffffffffffff168373ffffffffffffffffffffffffffffffffffffffff1603610765576040517f08c379a000000000000000000000000000000000000000000000000000000000815260040161075c90612b7a565b60405180910390fd5b8073ffffffffffffffffffffffffffffffffffffffff16610784611168565b73ffffffffffffffffffffffffffffffffffffffff1614806107b357506107b2816107ad611168565b610fa5565b5b6107f2576040517f08c379a00000000000000000000000000000000000000000000000000000000081526004016107e990612c0c565b60405180910390fd5b6107fc8383611170565b505050565b600061080b611229565b61081560086112a7565b600061082160086112bd565b905061082d84826112cb565b61083781846114e8565b8091505092915050565b600061084c8261158c565b610882576040517f3f6cc76800000000000000000000000000000000000000000000000000000000815260040160405180910390fd5b600b600083815260200190815260200160002060009054906101000a900467ffffffffffffffff169050919050565b6108bb33826115cd565b6108f1576040517f4fb505aa00000000000000000000000000000000000000000000000000000000815260040160405180910390fd5b600b600082815260200190815260200160002060006101000a81549067ffffffffffffffff0219169055807f2ec2be2c4b90c2cf13ecb6751a24daed6bb741ae5ed3f7371aabf9402f6d62e8600060405161094c9190612c71565b60405180910390a250565b610968610962611168565b826115cd565b6109a7576040517f08c379a000000000000000000000000000000000000000000000000000000000815260040161099e90612cfe565b60405180910390fd5b6109b2838383611662565b505050565b60095481565b60606109c88261158c565b610a07576040517f08c379a00000000000000000000000000000000000000000000000000000000081526004016109fe90612d6a565b60405180910390fd5b610a1082610e42565b9050919050565b610a3283838360405180602001604052806000815250610de0565b505050565b600080610a438361195b565b9050600073ffffffffffffffffffffffffffffffffffffffff168173ffffffffffffffffffffffffffffffffffffffff1603610ab4576040517f08c379a0000000000000000000000000000000000000000000000000000000008152600401610aab90612dd6565b60405180910390fd5b80915050919050565b60008073ffffffffffffffffffffffffffffffffffffffff168273ffffffffffffffffffffffffffffffffffffffff1603610b2d576040517f08c379a0000000000000000000000000000000000000000000000000000000008152600401610b2490612e68565b60405180910390fd5b600360008373ffffffffffffffffffffffffffffffffffffffff1673ffffffffffffffffffffffffffffffffffffffff168152602001908152602001600020549050919050565b610b7c611229565b610b866000611998565b565b610b9233836115cd565b610bc8576040517f4fb505aa00000000000000000000000000000000000000000000000000000000815260040160405180910390fd5b600c60009054906101000a900467ffffffffffffffff1667ffffffffffffffff168167ffffffffffffffff161015610c2c576040517fe3061ca900000000000000000000000000000000000000000000000000000000815260040160405180910390fd5b6000600c60089054906101000a900467ffffffffffffffff1667ffffffffffffffff1614158015610c865750600c60089054906101000a900467ffffffffffffffff1667ffffffffffffffff168167ffffffffffffffff16115b15610cbd576040517f3b44021f00000000000000000000000000000000000000000000000000000000815260040160405180910390fd5b610cc78282611a5e565b341015610d00576040517fcd1c886700000000000000000000000000000000000000000000000000000000815260040160405180910390fd5b610d0a8282611a66565b5050565b6000600760009054906101000a900473ffffffffffffffffffffffffffffffffffffffff16905090565b606060018054610d4790612ad7565b80601f0160208091040260200160405190810160405280929190818152602001828054610d7390612ad7565b8015610dc05780601f10610d9557610100808354040283529160200191610dc0565b820191906000526020600020905b815481529060010190602001808311610da357829003601f168201915b5050505050905090565b610ddc610dd5611168565b8383611bd2565b5050565b610df1610deb611168565b836115cd565b610e30576040517f08c379a0000000000000000000000000000000000000000000000000000000008152600401610e2790612cfe565b60405180910390fd5b610e3c84848484611d3e565b50505050565b6060610e4d8261111d565b6000600660008481526020019081526020016000208054610e6d90612ad7565b80601f0160208091040260200160405190810160405280929190818152602001828054610e9990612ad7565b8015610ee65780601f10610ebb57610100808354040283529160200191610ee6565b820191906000526020600020905b815481529060010190602001808311610ec957829003601f168201915b505050505090506000610ef7611d9a565b90506000815103610f0c578192505050610f4f565b600082511115610f41578082604051602001610f29929190612ec4565b60405160208183030381529060405292505050610f4f565b610f4a84611db1565b925050505b919050565b6000610f5f8261158c565b610f95576040517f3f6cc76800000000000000000000000000000000000000000000000000000000815260040160405180910390fd5b610f9e82611e19565b9050919050565b6000600560008473ffffffffffffffffffffffffffffffffffffffff1673ffffffffffffffffffffffffffffffffffffffff16815260200190815260200160002060008373ffffffffffffffffffffffffffffffffffffffff1673ffffffffffffffffffffffffffffffffffffffff16815260200190815260200160002060009054906101000a900460ff16905092915050565b611041611229565b600073ffffffffffffffffffffffffffffffffffffffff168173ffffffffffffffffffffffffffffffffffffffff16036110b0576040517f08c379a00000000000000000000000000000000000000000000000000000000081526004016110a790612f5a565b60405180910390fd5b6110b981611998565b50565b6000634906490660e01b7bffffffffffffffffffffffffffffffffffffffffffffffffffffffff1916827bffffffffffffffffffffffffffffffffffffffffffffffffffffffff19161480611116575061111582611e24565b5b9050919050565b6111268161158c565b611165576040517f08c379a000000000000000000000000000000000000000000000000000000000815260040161115c90612dd6565b60405180910390fd5b50565b600033905090565b816004600083815260200190815260200160002060006101000a81548173ffffffffffffffffffffffffffffffffffffffff021916908373ffffffffffffffffffffffffffffffffffffffff160217905550808273ffffffffffffffffffffffffffffffffffffffff166111e383610a37565b73ffffffffffffffffffffffffffffffffffffffff167f8c5be1e5ebec7d5bd14f71427d1e84f3dd0314c0f7b2291e5b200ac8c7c3b92560405160405180910390a45050565b611231611168565b73ffffffffffffffffffffffffffffffffffffffff1661124f610d0e565b73ffffffffffffffffffffffffffffffffffffffff16146112a5576040517f08c379a000000000000000000000000000000000000000000000000000000000815260040161129c90612fc6565b60405180910390fd5b565b6001816000016000828254019250508190555050565b600081600001549050919050565b600073ffffffffffffffffffffffffffffffffffffffff168273ffffffffffffffffffffffffffffffffffffffff160361133a576040517f08c379a000000000000000000000000000000000000000000000000000000000815260040161133190613032565b60405180910390fd5b6113438161158c565b15611383576040517f08c379a000000000000000000000000000000000000000000000000000000000815260040161137a9061309e565b60405180910390fd5b611391600083836001611f06565b61139a8161158c565b156113da576040517f08c379a00000000000000000000000000000000000000000000000000000000081526004016113d19061309e565b60405180910390fd5b6001600360008473ffffffffffffffffffffffffffffffffffffffff1673ffffffffffffffffffffffffffffffffffffffff16815260200190815260200160002060008282540192505081905550816002600083815260200190815260200160002060006101000a81548173ffffffffffffffffffffffffffffffffffffffff021916908373ffffffffffffffffffffffffffffffffffffffff160217905550808273ffffffffffffffffffffffffffffffffffffffff16600073ffffffffffffffffffffffffffffffffffffffff167fddf252ad1be2c89b69c2b068fc378daa952ba7f163c4a11628f55a4df523b3ef60405160405180910390a46114e4600083836001611f0c565b5050565b6114f18261158c565b611530576040517f08c379a000000000000000000000000000000000000000000000000000000000815260040161152790613130565b60405180910390fd5b8060066000848152602001908152602001600020908161155091906132f2565b507ff8e1a15aba9398e019f0b49df1a4fde98ee17ae345cb5f6b5e2c27f5033e8ce7826040516115809190612793565b60405180910390a15050565b60008073ffffffffffffffffffffffffffffffffffffffff166115ae8361195b565b73ffffffffffffffffffffffffffffffffffffffff1614159050919050565b6000806115d983610a37565b90508073ffffffffffffffffffffffffffffffffffffffff168473ffffffffffffffffffffffffffffffffffffffff16148061161b575061161a8185610fa5565b5b8061165957508373ffffffffffffffffffffffffffffffffffffffff16611641846106a4565b73ffffffffffffffffffffffffffffffffffffffff16145b91505092915050565b8273ffffffffffffffffffffffffffffffffffffffff1661168282610a37565b73ffffffffffffffffffffffffffffffffffffffff16146116d8576040517f08c379a00000000000000000000000000000000000000000000000000000000081526004016116cf90613436565b60405180910390fd5b600073ffffffffffffffffffffffffffffffffffffffff168273ffffffffffffffffffffffffffffffffffffffff1603611747576040517f08c379a000000000000000000000000000000000000000000000000000000000815260040161173e906134c8565b60405180910390fd5b6117548383836001611f06565b8273ffffffffffffffffffffffffffffffffffffffff1661177482610a37565b73ffffffffffffffffffffffffffffffffffffffff16146117ca576040517f08c379a00000000000000000000000000000000000000000000000000000000081526004016117c190613436565b60405180910390fd5b6004600082815260200190815260200160002060006101000a81549073ffffffffffffffffffffffffffffffffffffffff02191690556001600360008573ffffffffffffffffffffffffffffffffffffffff1673ffffffffffffffffffffffffffffffffffffffff168152602001908152602001600020600082825403925050819055506001600360008473ffffffffffffffffffffffffffffffffffffffff1673ffffffffffffffffffffffffffffffffffffffff16815260200190815260200160002060008282540192505081905550816002600083815260200190815260200160002060006101000a81548173ffffffffffffffffffffffffffffffffffffffff021916908373ffffffffffffffffffffffffffffffffffffffff160217905550808273ffffffffffffffffffffffffffffffffffffffff168473ffffffffffffffffffffffffffffffffffffffff167fddf252ad1be2c89b69c2b068fc378daa952ba7f163c4a11628f55a4df523b3ef60405160405180910390a46119568383836001611f0c565b505050565b60006002600083815260200190815260200160002060009054906101000a900473ffffffffffffffffffffffffffffffffffffffff169050919050565b6000600760009054906101000a900473ffffffffffffffffffffffffffffffffffffffff16905081600760006101000a81548173ffffffffffffffffffffffffffffffffffffffff021916908373ffffffffffffffffffffffffffffffffffffffff1602179055508173ffffffffffffffffffffffffffffffffffffffff168173ffffffffffffffffffffffffffffffffffffffff167f8be0079c531659141344cd1fd0a4f28419497f9722a3daafe3b4186f6b6457e060405160405180910390a35050565b600092915050565b611a6f8261158c565b611aa5576040517f3f6cc76800000000000000000000000000000000000000000000000000000000815260040160405180910390fd5b6000600b600084815260200190815260200160002060009054906101000a900467ffffffffffffffff1690506000808267ffffffffffffffff161480611af45750428267ffffffffffffffff16105b15611b0c578242611b059190613517565b9050611b5a565b611b1584611e19565b611b4b576040517f8b9bff4500000000000000000000000000000000000000000000000000000000815260040160405180910390fd5b8282611b579190613517565b90505b80600b600086815260200190815260200160002060006101000a81548167ffffffffffffffff021916908367ffffffffffffffff160217905550837f2ec2be2c4b90c2cf13ecb6751a24daed6bb741ae5ed3f7371aabf9402f6d62e882604051611bc491906127d1565b60405180910390a250505050565b8173ffffffffffffffffffffffffffffffffffffffff168373ffffffffffffffffffffffffffffffffffffffff1603611c40576040517f08c379a0000000000000000000000000000000000000000000000000000000008152600401611c379061359f565b60405180910390fd5b80600560008573ffffffffffffffffffffffffffffffffffffffff1673ffffffffffffffffffffffffffffffffffffffff16815260200190815260200160002060008473ffffffffffffffffffffffffffffffffffffffff1673ffffffffffffffffffffffffffffffffffffffff16815260200190815260200160002060006101000a81548160ff0219169083151502179055508173ffffffffffffffffffffffffffffffffffffffff168373ffffffffffffffffffffffffffffffffffffffff167f17307eab39ab6107e8899845ad3d59bd9653f200f220920489ca2b5937696c3183604051611d3191906123fb565b60405180910390a3505050565b611d49848484611662565b611d5584848484611f12565b611d94576040517f08c379a0000000000000000000000000000000000000000000000000000000008152600401611d8b90613631565b60405180910390fd5b50505050565b606060405180602001604052806000815250905090565b6060611dbc8261111d565b6000611dc6611d9a565b90506000815111611de65760405180602001604052806000815250611e11565b80611df084612099565b604051602001611e01929190612ec4565b6040516020818303038152906040525b915050919050565b600060019050919050565b60007f80ac58cd000000000000000000000000000000000000000000000000000000007bffffffffffffffffffffffffffffffffffffffffffffffffffffffff1916827bffffffffffffffffffffffffffffffffffffffffffffffffffffffff19161480611eef57507f5b5e139f000000000000000000000000000000000000000000000000000000007bffffffffffffffffffffffffffffffffffffffffffffffffffffffff1916827bffffffffffffffffffffffffffffffffffffffffffffffffffffffff1916145b80611eff5750611efe82612167565b5b9050919050565b50505050565b50505050565b6000611f338473ffffffffffffffffffffffffffffffffffffffff166121d1565b1561208c578373ffffffffffffffffffffffffffffffffffffffff1663150b7a02611f5c611168565b8786866040518563ffffffff1660e01b8152600401611f7e94939291906136a6565b6020604051808303816000875af1925050508015611fba57506040513d601f19601f82011682018060405250810190611fb79190613707565b60015b61203c573d8060008114611fea576040519150601f19603f3d011682016040523d82523d6000602084013e611fef565b606091505b506000815103612034576040517f08c379a000000000000000000000000000000000000000000000000000000000815260040161202b90613631565b60405180910390fd5b805181602001fd5b63150b7a0260e01b7bffffffffffffffffffffffffffffffffffffffffffffffffffffffff1916817bffffffffffffffffffffffffffffffffffffffffffffffffffffffff191614915050612091565b600190505b949350505050565b6060600060016120a8846121f4565b01905060008167ffffffffffffffff8111156120c7576120c66125fd565b5b6040519080825280601f01601f1916602001820160405280156120f95781602001600182028036833780820191505090505b509050600082602001820190505b60011561215c578080600190039150507f3031323334353637383961626364656600000000000000000000000000000000600a86061a8153600a85816121505761214f613734565b5b04945060008503612107575b819350505050919050565b60007f01ffc9a7000000000000000000000000000000000000000000000000000000007bffffffffffffffffffffffffffffffffffffffffffffffffffffffff1916827bffffffffffffffffffffffffffffffffffffffffffffffffffffffff1916149050919050565b6000808273ffffffffffffffffffffffffffffffffffffffff163b119050919050565b600080600090507a184f03e93ff9f4daa797ed6e38ed64bf6a1f0100000000000000008310612252577a184f03e93ff9f4daa797ed6e38ed64bf6a1f010000000000000000838161224857612247613734565b5b0492506040810190505b6d04ee2d6d415b85acef8100000000831061228f576d04ee2d6d415b85acef8100000000838161228557612284613734565b5b0492506020810190505b662386f26fc1000083106122be57662386f26fc1000083816122b4576122b3613734565b5b0492506010810190505b6305f5e10083106122e7576305f5e10083816122dd576122dc613734565b5b0492506008810190505b612710831061230c57612710838161230257612301613734565b5b0492506004810190505b6064831061232f576064838161232557612324613734565b5b0492506002810190505b600a831061233e576001810190505b80915050919050565b6000604051905090565b600080fd5b600080fd5b60007fffffffff0000000000000000000000000000000000000000000000000000000082169050919050565b6123908161235b565b811461239b57600080fd5b50565b6000813590506123ad81612387565b92915050565b6000602082840312156123c9576123c8612351565b5b60006123d78482850161239e565b91505092915050565b60008115159050919050565b6123f5816123e0565b82525050565b600060208201905061241060008301846123ec565b92915050565b600081519050919050565b600082825260208201905092915050565b60005b83811015612450578082015181840152602081019050612435565b60008484015250505050565b6000601f19601f8301169050919050565b600061247882612416565b6124828185612421565b9350612492818560208601612432565b61249b8161245c565b840191505092915050565b600060208201905081810360008301526124c0818461246d565b905092915050565b6000819050919050565b6124db816124c8565b81146124e657600080fd5b50565b6000813590506124f8816124d2565b92915050565b60006020828403121561251457612513612351565b5b6000612522848285016124e9565b91505092915050565b600073ffffffffffffffffffffffffffffffffffffffff82169050919050565b60006125568261252b565b9050919050565b6125668161254b565b82525050565b6000602082019050612581600083018461255d565b92915050565b6125908161254b565b811461259b57600080fd5b50565b6000813590506125ad81612587565b92915050565b600080604083850312156125ca576125c9612351565b5b60006125d88582860161259e565b92505060206125e9858286016124e9565b9150509250929050565b600080fd5b600080fd5b7f4e487b7100000000000000000000000000000000000000000000000000000000600052604160045260246000fd5b6126358261245c565b810181811067ffffffffffffffff82111715612654576126536125fd565b5b80604052505050565b6000612667612347565b9050612673828261262c565b919050565b600067ffffffffffffffff821115612693576126926125fd565b5b61269c8261245c565b9050602081019050919050565b82818337600083830152505050565b60006126cb6126c684612678565b61265d565b9050828152602081018484840111156126e7576126e66125f8565b5b6126f28482856126a9565b509392505050565b600082601f83011261270f5761270e6125f3565b5b813561271f8482602086016126b8565b91505092915050565b6000806040838503121561273f5761273e612351565b5b600061274d8582860161259e565b925050602083013567ffffffffffffffff81111561276e5761276d612356565b5b61277a858286016126fa565b9150509250929050565b61278d816124c8565b82525050565b60006020820190506127a86000830184612784565b92915050565b600067ffffffffffffffff82169050919050565b6127cb816127ae565b82525050565b60006020820190506127e660008301846127c2565b92915050565b60008060006060848603121561280557612804612351565b5b60006128138682870161259e565b93505060206128248682870161259e565b9250506040612835868287016124e9565b9150509250925092565b60006020828403121561285557612854612351565b5b60006128638482850161259e565b91505092915050565b612875816127ae565b811461288057600080fd5b50565b6000813590506128928161286c565b92915050565b600080604083850312156128af576128ae612351565b5b60006128bd858286016124e9565b92505060206128ce85828601612883565b9150509250929050565b6128e1816123e0565b81146128ec57600080fd5b50565b6000813590506128fe816128d8565b92915050565b6000806040838503121561291b5761291a612351565b5b60006129298582860161259e565b925050602061293a858286016128ef565b9150509250929050565b600067ffffffffffffffff82111561295f5761295e6125fd565b5b6129688261245c565b9050602081019050919050565b600061298861298384612944565b61265d565b9050828152602081018484840111156129a4576129a36125f8565b5b6129af8482856126a9565b509392505050565b600082601f8301126129cc576129cb6125f3565b5b81356129dc848260208601612975565b91505092915050565b600080600080608085870312156129ff576129fe612351565b5b6000612a0d8782880161259e565b9450506020612a1e8782880161259e565b9350506040612a2f878288016124e9565b925050606085013567ffffffffffffffff811115612a5057612a4f612356565b5b612a5c878288016129b7565b91505092959194509250565b60008060408385031215612a7f57612a7e612351565b5b6000612a8d8582860161259e565b9250506020612a9e8582860161259e565b9150509250929050565b7f4e487b7100000000000000000000000000000000000000000000000000000000600052602260045260246000fd5b60006002820490506001821680612aef57607f821691505b602082108103612b0257612b01612aa8565b5b50919050565b7f4552433732313a20617070726f76616c20746f2063757272656e74206f776e6560008201527f7200000000000000000000000000000000000000000000000000000000000000602082015250565b6000612b64602183612421565b9150612b6f82612b08565b604082019050919050565b60006020820190508181036000830152612b9381612b57565b9050919050565b7f4552433732313a20617070726f76652063616c6c6572206973206e6f7420746f60008201527f6b656e206f776e6572206f7220617070726f76656420666f7220616c6c000000602082015250565b6000612bf6603d83612421565b9150612c0182612b9a565b604082019050919050565b60006020820190508181036000830152612c2581612be9565b9050919050565b6000819050919050565b6000819050919050565b6000612c5b612c56612c5184612c2c565b612c36565b6127ae565b9050919050565b612c6b81612c40565b82525050565b6000602082019050612c866000830184612c62565b92915050565b7f4552433732313a2063616c6c6572206973206e6f7420746f6b656e206f776e6560008201527f72206f7220617070726f76656400000000000000000000000000000000000000602082015250565b6000612ce8602d83612421565b9150612cf382612c8c565b604082019050919050565b60006020820190508181036000830152612d1781612cdb565b9050919050565b7f546f6b656e20494420646f6573206e6f74206578697374000000000000000000600082015250565b6000612d54601783612421565b9150612d5f82612d1e565b602082019050919050565b60006020820190508181036000830152612d8381612d47565b9050919050565b7f4552433732313a20696e76616c696420746f6b656e2049440000000000000000600082015250565b6000612dc0601883612421565b9150612dcb82612d8a565b602082019050919050565b60006020820190508181036000830152612def81612db3565b9050919050565b7f4552433732313a2061646472657373207a65726f206973206e6f74206120766160008201527f6c6964206f776e65720000000000000000000000000000000000000000000000602082015250565b6000612e52602983612421565b9150612e5d82612df6565b604082019050919050565b60006020820190508181036000830152612e8181612e45565b9050919050565b600081905092915050565b6000612e9e82612416565b612ea88185612e88565b9350612eb8818560208601612432565b80840191505092915050565b6000612ed08285612e93565b9150612edc8284612e93565b91508190509392505050565b7f4f776e61626c653a206e6577206f776e657220697320746865207a65726f206160008201527f6464726573730000000000000000000000000000000000000000000000000000602082015250565b6000612f44602683612421565b9150612f4f82612ee8565b604082019050919050565b60006020820190508181036000830152612f7381612f37565b9050919050565b7f4f776e61626c653a2063616c6c6572206973206e6f7420746865206f776e6572600082015250565b6000612fb0602083612421565b9150612fbb82612f7a565b602082019050919050565b60006020820190508181036000830152612fdf81612fa3565b9050919050565b7f4552433732313a206d696e7420746f20746865207a65726f2061646472657373600082015250565b600061301c602083612421565b915061302782612fe6565b602082019050919050565b6000602082019050818103600083015261304b8161300f565b9050919050565b7f4552433732313a20746f6b656e20616c7265616479206d696e74656400000000600082015250565b6000613088601c83612421565b915061309382613052565b602082019050919050565b600060208201905081810360008301526130b78161307b565b9050919050565b7f45524337323155524953746f726167653a2055524920736574206f66206e6f6e60008201527f6578697374656e7420746f6b656e000000000000000000000000000000000000602082015250565b600061311a602e83612421565b9150613125826130be565b604082019050919050565b600060208201905081810360008301526131498161310d565b9050919050565b60008190508160005260206000209050919050565b60006020601f8301049050919050565b600082821b905092915050565b6000600883026131b27fffffffffffffffffffffffffffffffffffffffffffffffffffffffffffffffff82613175565b6131bc8683613175565b95508019841693508086168417925050509392505050565b60006131ef6131ea6131e5846124c8565b612c36565b6124c8565b9050919050565b6000819050919050565b613209836131d4565b61321d613215826131f6565b848454613182565b825550505050565b600090565b613232613225565b61323d818484613200565b505050565b5b818110156132615761325660008261322a565b600181019050613243565b5050565b601f8211156132a65761327781613150565b61328084613165565b8101602085101561328f578190505b6132a361329b85613165565b830182613242565b50505b505050565b600082821c905092915050565b60006132c9600019846008026132ab565b1980831691505092915050565b60006132e283836132b8565b9150826002028217905092915050565b6132fb82612416565b67ffffffffffffffff811115613314576133136125fd565b5b61331e8254612ad7565b613329828285613265565b600060209050601f83116001811461335c576000841561334a578287015190505b61335485826132d6565b8655506133bc565b601f19841661336a86613150565b60005b828110156133925784890151825560018201915060208501945060208101905061336d565b868310156133af57848901516133ab601f8916826132b8565b8355505b6001600288020188555050505b505050505050565b7f4552433732313a207472616e736665722066726f6d20696e636f72726563742060008201527f6f776e6572000000000000000000000000000000000000000000000000000000602082015250565b6000613420602583612421565b915061342b826133c4565b604082019050919050565b6000602082019050818103600083015261344f81613413565b9050919050565b7f4552433732313a207472616e7366657220746f20746865207a65726f2061646460008201527f7265737300000000000000000000000000000000000000000000000000000000602082015250565b60006134b2602483612421565b91506134bd82613456565b604082019050919050565b600060208201905081810360008301526134e1816134a5565b9050919050565b7f4e487b7100000000000000000000000000000000000000000000000000000000600052601160045260246000fd5b6000613522826127ae565b915061352d836127ae565b9250828201905067ffffffffffffffff81111561354d5761354c6134e8565b5b92915050565b7f4552433732313a20617070726f766520746f2063616c6c657200000000000000600082015250565b6000613589601983612421565b915061359482613553565b602082019050919050565b600060208201905081810360008301526135b88161357c565b9050919050565b7f4552433732313a207472616e7366657220746f206e6f6e20455243373231526560008201527f63656976657220696d706c656d656e7465720000000000000000000000000000602082015250565b600061361b603283612421565b9150613626826135bf565b604082019050919050565b6000602082019050818103600083015261364a8161360e565b9050919050565b600081519050919050565b600082825260208201905092915050565b600061367882613651565b613682818561365c565b9350613692818560208601612432565b61369b8161245c565b840191505092915050565b60006080820190506136bb600083018761255d565b6136c8602083018661255d565b6136d56040830185612784565b81810360608301526136e7818461366d565b905095945050505050565b60008151905061370181612387565b92915050565b60006020828403121561371d5761371c612351565b5b600061372b848285016136f2565b91505092915050565b7f4e487b7100000000000000000000000000000000000000000000000000000000600052601260045260246000fdfea26469706673582212203f6d24d1e116f559b1517b924747b9c3ffe2393ea2f7b464575586ebedb7873c64736f6c63430008130033",
  "linkReferences": {},
  "deployedLinkReferences": {}
}